:020000040000fa
:080000000002040000000000f2
:020000040000fa
:10000800ae110000ae110000ae110000ae110000ec
:10001800ae110000ae110000ae110000ae110000dc
:10002800ae110000ae110000ae1100000a0300007e
:10003800d2030000ae110000ae110000ae110000a6
:10004800ae110000ae110000ae110000de0200008b
:10005800ae110000ae110000ae110000ae1100009c
:10006800ae110000ae110000ae110000d202000077
:10007800ae110000ae110000ae110000ae1100007c
:10008800de030000ae110000ae110000ae1100004a
:10009800ae110000ae110000ae110000ae1100005c
:1000a800ae110000ae110000ae1100006a0300009e
:1000b800ae110000ae110000ae110000ae1100003c
:1000c800ae110000ae110000ae110000ae1100002c
:1000d800ae110000ae110000ae110000ae1100001c
:1000e800ae110000ae110000ae110000ae1100000c
:1000f800ae110000ae110000ae110000ae110000fc
:10010800ae110000ae110000ae110000ae110000eb
:10011800ae110000ae110000ae110000ae110000db
:10012800ae110000ae110000ae110000ae110000cb
:10013800ae110000ae110000ae110000ae110000bb
:10014800ae110000ae110000ae110000ae110000ab
:10015800ae110000ae110000ae110000ae1100009b
:10016800ae110000ae110000ae110000ae1100008b
:10017800ae110000ae110000ae110000ae1100007b
:10018800ae110000ae110000ae110000ae1100006b
:10019800ae110000ae110000ae110000ae1100005b
:1001a800ae110000ae110000ae110000ae1100004b
:1001b800ae110000ae110000ae110000ae1100003b
:1001c800ae110000ae110000ae110000ae1100002b
:1001d800ae110000ae110000ae110000ae1100001b
:1001e800ae110000ae110000ae110000ae1100000b
:1001f800ae110000ae110000ae110000ae110000fb
:10020800ae110000ae110000ae110000ae110000ea
:10021800ae110000ae110000ae110000ae110000da
:10022800ae110000ae110000ae110000ae110000ca
:10023800ae110000ae110000ae110000ae110000ba
:10024800ae110000ae110000ae110000ae110000aa
:10025800ae110000ae110000ae110000ae1100009a
:10026800ae110000ae110000ae110000ae1100008a
:0c027800ae110000ae110000ae1100003d
:020000040000fa
:10040000cf0421000efb22000e0188000000000036
:10041000000020000000e000020032000001200087
:10042000200288000c000700a02721000100200006
:100430000f000700000020000000e0000200320072
:1004400000000200000000004a040200000000005a
:100450000040da000000fe00200020000000e00064
:100460000200320010002000900188000000060009
:10047000a1028800800078000000eb001a0037001d
:10048000e280400054a0b4009101ba00e280400034
:1004900054a0b4009102ba00e280400054a0b4001d
:1004a0000002eb00472bde00f507b200a601880032
:1004b000602ce10008003a000049eb000201e8006e
:1004c000020039003420ec0002f0a0008301e900b2
:1004d000f9ff3e00040037006128e100010032000e
:1004e0000082eb00040007001101ba000200e000e6
:1004f000e3ff3a000000060004d0a300e20f490029
:100500001c003900810278003549ba000201e80078
:10051000020039003420ec0002f0a0008301e90061
:100520000f0032002549ba000201e800020039003c
:100530003420ec0002f0a0008301e9000800320042
:100540000400e0000600320015c9ba000201e8000c
:10055000020039003420ec0002f0a0008301e90021
:100560008180e80054a0b4000300e000e2ff3a00fc
:10057000000006009102ba00055978008301e900e5
:10058000f7ff3200c82ade00055978008301e90030
:10059000f3ff32000400e000f1ff320011d9ba008d
:1005a000eeff3700801f78000000fa000268a90003
:1005b0000080fa004f00780000400600801f78009d
:1005c000841f78000000fa000168a9000000000004
:1005d0001411800062026200e00f5200fcff3a003a
:1005e0002222a9001411800061026200e00f520073
:1005f00004003200341180000442780004007800c6
:1006000032f0b7000080fa004f0278004f00780007
:10061000004006003600f800809fbe00829fbe00aa
:10062000849fbe00869fbe000000fa000068a900fb
:1006300085818000843e2000848f52001b0034009e
:1006400024002100144278000483fb0007002000ee
:100650000002eb008000eb000601be000000eb0092
:100660003e0307000042eb00841f780014c0b30073
:10067000841f780027c0b30036c0b3008042eb006f
:100680000042eb008041eb000041eb0081002000c4
:100690000040eb003b040700e48757003064a800eb
:1006a0000002eb0084818800030037008481800011
:1006b0000402e800848188000080fa004f03be0035
:1006c0004f02be004f01be004f00be003600f900d1
:1006d000004006003600f800809fbe00829fbe00ea
:1006e000849fbe00869fbe000000fa005520800057
:1006f0000402200004826200e00f52000100320078
:100700000aa4a90055208000040820000482620089
:10071000e00f5200010032000ae4a90055208000d9
:100720000400210004826200e00f52000100320048
:100730000b84a9005420800061026200e00f520087
:10074000010032000a04a900542080006202620005
:10075000e00f52000b0032000421800062026200b0
:10076000e00f52000400320014c0b300040078000f
:100770002ef0b7002024a900e0012100c0040700ea
:100780000a24a9000468a9000080fa004f03be00f3
:100790004f02be004f01be004f00be003600f90000
:1007a00000400600801f78000000fa000088a900c1
:1007b0000080fa004f00780000400600801f78009b
:1007c0000000fa000308a9000080fa004f0078003a
:1007d000004006000200fa00004f78000000000010
:1007e000151180000420200004826200e00f5200f6
:1007f000fbff3a001e4278000482fb0024118800af
:100800000000000015118000041020000482620026
:10081000e00f5200fbff32000080fa0000000600eb
:100820000200fa00000f78001e027800e10f52006b
:1008300002003a00042ea80001003700042ea9008f
:100840000080fa00000006000400fa00100798007b
:100850000002eb00040f78000002eb00040f7800a8
:100860000500370027000900000000001e02780084
:100870000402e800040f78001e0278008402780069
:100880001e029000848f5200f6ff39000080fa00ab
:10089000000006000000fa0038000700cf00070043
:1008a000d400070010002000ddff070040012000f9
:1008b000e5ff070000c0eb00c6ff0700e0cfb30074
:1008c000c4ff0700a0c0b300c2ff07000000eb0098
:1008d000d3ff0700010037000000000004002100e2
:1008e00014427800e04f5200fbff32002400210048
:1008f000144278000400780003f0b700e4ccb300a1
:10090000040078000bf0b700340021001442780096
:100910000483fb00070020000002eb008000eb00d6
:100920000601be000000eb008c0207000042eb0055
:10093000841f78000042eb00841f78008043eb00a6
:100940000043eb008042eb000042eb00a3cab3007f
:1009500000c1eb00210020000040eb0089030700ec
:10096000e48757003064a8000042eb000002fd005d
:1009700000f0b7000002fd00d8ff37000000fa00c9
:10098000c3e8a900353a800004e02f0084826200a9
:100990006402200005027200343a8800243a800084
:1009a0000460a1000470a100243a8800253a800068
:1009b00004fe2f00048262003400b300243a880051
:1009c0003600200084072000a5092000377420008d
:1009d000844b7800854b7800864b7800143a800071
:1009e000040378000600a0006404200075052000c0
:1009f00027742000844b7800854b7800864b780064
:100a000000000000153a8000040027008482620084
:100a100004002300848f5200faff3a000000000017
:100a2000153a80000402200004826200e00f5200a8
:100a3000fbff32000002eb00747088000002eb0044
:100a4000f4708800114ea900002ea900154ea800d0
:100a5000240880000440a1000450a100240888005c
:100a600004ee2200140888000442800004c0a000a4
:100a700004d0a10004e0a100044288002068a8007e
:100a800005e1a80018cea8002268a8000268a90005
:100a90002002a900041180000410a1000420a1007c
:100aa0000411880020a2a9003682800047828000bd
:100ab00004092d0035002000840f5300858f5b0052
:100ac0000c0034002062a80034828000458280003f
:100ad0000401be00001c2e00410e2000210607006c
:100ae0000002be00040278000402e90044118800fc
:100af0000b0037002062a90034828000458280000c
:100b00000401be00008723009103200015060700a2
:100b10000002be00040278000402e90044118800cb
:100b200023a2a90023e2a9002168a8002442800092
:100b300004c0a10004d0a00004e0a1002442880069
:100b400021e2a8002342a80034012000747088002c
:100b500014102000f4708800153a8000f40b200077
:100b600004836200640420007505200027742000bf
:100b7000844b7800854b7800864b780005348000e4
:100b800004fc2f00048262000400a00004348800ea
:100b90002536800004f82f0084826200d4022000f1
:100ba0000502720024368800153a800004042000f3
:100bb0000403780005037300640420007505200019
:100bc00027742000844b7800854b7800864b780092
:100bd000c3e8a8000080fa00000006000000fa0048
:100be0000042eb000400780002f0b7000080fa0039
:100bf000000006000000fa00042080000480a1002c
:100c00000490a10004a0a0000420880000000000bf
:100c100005208000040e2000848262000408200069
:100c2000848f5200faff3a000164a80054002000ab
:100c300084208800940920009420880034208000bb
:100c400004d0a10004e0a10004f0a1003420880039
:100c500024002100144278000483fb0007002000d8
:100c60008002eb00140020008000eb000601be00b3
:100c70000000eb00600007000002eb001100200004
:100c8000f27f2000030020000000eb00220107009b
:100c9000042080000480a1000490a10004a0a10011
:100ca000042088000000000005208000040e2000c1
:100cb00004826200e00f5200fbff3a000002eb00ea
:100cc0005421880054218000442188004421800060
:100cd00014218800142180000421880030e4a80039
:100ce00031e4a900842180000400a0000410a000c9
:100cf00084218800842180000480a0000490a0004a
:100d000084218800a536800004f82f0084826200c8
:100d1000c402200005027200a43688004534800019
:100d2000f40f2c008482620004e0200005027200af
:100d3000443488000002eb00845f88000002eb006e
:100d4000945f8800040222000458880004022000f6
:100d5000045988002444200064588800044420007a
:100d600064598800740020007458880074002000c2
:100d7000745988006404200014588800240220005c
:100d80001459880004fc2200245888000400200024
:100d90003458880001eba80004fc22002459880084
:100da000040020003459880021eba8002468a80022
:100db0000c04a8000c24a8000ca4a8000080fa00d1
:100dc000000006000000fa000002eb00044088006a
:100dd0000002eb00144088000002eb002440880071
:100de0000002eb00344088000002eb004440880021
:100df0000080fa00000006002000fa00200f980092
:100e0000320f9800430f9800510f9800640f98001c
:100e1000750f98006022b800048fbe006022b800f1
:100e200024079800350798006022b800440798000e
:100e3000550798000004a8002e0a90000402420002
:100e4000040242008402780004442000048242002c
:100e5000640798002e0a900042a2de0004024200bd
:100e60008402780004422000048242007407980043
:100e70002e0a900043a2de000402420084027800a1
:100e80008441200004824200040f98004441200065
:100e9000140f98005e0a9000e10f520049003a00da
:100ea0003e0b9000ce0b9000f4ff2f0005002000b9
:100eb00006007800070378008403780005027800b4
:100ec000070060000402630005002000c022dd006e
:100ed000040020000403be006102b8000403730094
:100ee0008583730026079800370798003e0a900014
:100ef000ce0a900040aade00cfa2de000403be00ae
:100f00003400200005002000060078000703780068
:100f10008403780005027800070060000402630083
:100f200005002000c022dd00040020000403be00f4
:100f30006102b800040373008583730046079800bc
:100f4000570798003e0a9000ce0a900042aade00a1
:100f5000cfa2de000403be00f47f200005002000c5
:100f60000600780087037800040378000502780003
:100f7000060360000482630005002000c022dd003b
:100f800004002000048fbe006132b8001e1f7200f2
:100f90001e9772001e027800c522dd004e029000ee
:100fa00004824200e80242006e029000050a7800c6
:100fb0006e0290000482e800ae029000050a7800fc
:100fc000190037003e0b9000ce0b9000f47f2000fc
:100fd00005002000060078008703780004037800ed
:100fe000050278000603600004826300050020000b
:100ff000c022dd0004002000048fbe006132b80072
:101000001e1f72001e9772001e027800c522dd00ae
:101010006e029000050a78006e0290000482e800db
:101020008002eb00050a78007e02900094027800ae
:101030002e0a9000630262004222dd00f6002000ca
:101040000432dd000482ea00848262007e029000a5
:10105000050a78002e0a9000630262004222dd0039
:10106000ee0a9000842add007e02900014027800cf
:101070000403780005037300860278007e02900066
:10108000050a78000e0a9000940278002e0a90005b
:101090006702620004024200360020000432dd00d4
:1010a0000482ea00848262000e0a9000050a780039
:1010b0002e0a90006702620004024200fe0a9000bd
:1010c000842add000e0a90001402780004037800e0
:1010d00005037300860278000e0a9000050a780066
:1010e000150020002e0a9000042add0084027800fa
:1010f0001e0a9000140278000403780005037300b0
:10110000860278001e0a9000050a78000004a900f3
:101110000080fa00000006001800fa00700798002e
:10112000020f9800130f9800210f9800340f9800b9
:101130006022b800048fbe006022b8002407980027
:10114000350798006022b8004407980055079800ba
:101150000004a8007e029000040242000402420043
:10116000840278000443200004824200640798004f
:101170003e0a9000e10f520053003a000e0b90001f
:101180009e0b9000f4ff2f00050020000600780061
:1011900007037800840378000502780007006000e8
:1011a0000402630005002000c022dd0004002000ce
:1011b0000403be006102b80004037300858373005a
:1011c00026079800370798000e0a90009e0a9000a4
:1011d00040aade00cfa2de000403be0034002000df
:1011e00005002000060078000703780084037800db
:1011f000050278000700600004026300050020007b
:10120000c022dd00040020000403be006102b8001b
:1012100004037300858373004607980057079800fe
:101220000e0a90009e0a900042aade00cfa2de00c5
:101230000403be00f47f20000500200006007800b3
:101240008703780004037800050278000603600035
:101250000482630005002000c022dd00040020009d
:10126000048fbe006132b8001e1f72001e9772000c
:101270002e0a9000e10f520008003a001e0278008a
:10128000c522dd004e02900004824200e8024200c6
:101290006e029000050a7800060037001e027800f2
:1012a000c522dd004e029000848242006e02900052
:1012b000050a78006e0290000482e800ae029000f9
:1012c000050a7800220037000e0b90009e0b90005c
:1012d000f47f2000050020000600780087037800d6
:1012e00004037800050278000603600004826300ae
:1012f00005002000c022dd0004002000048fbe0095
:101300006132b8001e1f72001e9772002e0a9000f4
:10131000e10f520006003a001e0278004522dd006f
:10132000e80242006e029000050a780004003700cf
:101330001e027800c522dd006e029000050a7800ca
:101340006e0290000482e8008002eb00050a78003b
:101350000004a9000080fa00000006002600fa0040
:10136000889fbe008a9fbe008c9fbe00400f9800e1
:10137000520f9800630f9800710f9800041798009f
:101380006022b800048fbe006022b80024079800d5
:10139000350798006022b800440798005507980068
:1013a0006022b80064079800750798006022b800b2
:1013b000040f9800150f98006022b800240f9800c1
:1013c000350f98007e0a9000e00f52004600320070
:1013d0005e0b9000ee0b9000f4032000050020004f
:1013e000060078000703780084037800050278007f
:1013f000070060000402630005002000c022dd0039
:10140000040020000403be006102b800040373005e
:1014100085837300060f9800170f98005e0a9000ee
:10142000ee0a9000ca28dd004622de000482700029
:10143000c6aade000403be00f4ff20000500200061
:10144000060078000703780084037800050278001e
:10145000070060000402630005002000c022dd00d8
:10146000040020000403be006102b80004037300fe
:1014700085837300260f9800370f98005e0a90004e
:10148000ee0a900042aade00cfa2de000403be00f6
:10149000f47f200005002000060078000703780094
:1014a00084037800050278000700600004026300ee
:1014b00005002000c022dd00040020000403be005f
:1014c0006102b80004037300858373006607980007
:1014d000770798002e099000be0990002207980017
:1014e00033079800130037005e0b9000ee0b90005e
:1014f000f47f200005002000060078000703780034
:10150000840378000502780007006000040263008d
:1015100005002000c022dd00040020000403be00fe
:101520006102b800040373008583730066079800a6
:10153000770798000e129000e10f52001a003a004f
:101540006e029000fe029000422bdd00ce23de00f2
:10155000870373004223dd007e0a9000050020000f
:1015600004027300858273000403be000610a0000d
:10157000068fbe000e0a90009e0a90004a2bdd00e6
:10158000c623de00870373004a23dd000420200009
:101590000500200004027300858273004407980050
:1015a00055079800120037006e029000fe0290006e
:1015b000422bdd00ce23de00870373004223dd00d3
:1015c0007e0a900005002000041f73000597730039
:1015d0000e0b90009e0b90004a3add00c632de00f2
:1015e000850272004a32dd004407980055079800d2
:1015f0007e0a9000e00f52001c0032001e027800ac
:10160000840378000710a0004e0a90004422dd00f9
:101610006122b90001fc220011179800020020008d
:10162000221798001e119000ae1190000403d00004
:101630008200d000010243004220a80083824a00b9
:101640004200a9004220ae004200a8000482d3005c
:10165000a60180000500780004027800a00188003f
:10166000070a7800a6018800150037009e0378005d
:101670004e0a90004422dd006122b9000cfc2200d9
:101680000d0020000401d0008c01d00003024100b5
:101690004220a8008d824a004200a9004220ae00ec
:1016a0004200a8000482d300a60180000500780053
:1016b00004027800a0018800070a7800a6018800cb
:1016c000ae0390004e0a90004422dd000482e80040
:1016d0006122b9000afc22000b0020000403d000a4
:1016e0008a00d000010243004220a8008b824a00f9
:1016f0004200a9004220ae004200a8000482d300ac
:10170000a60180000500780004027800a00188008e
:10171000070a7800a6018800ce0390004e0a9000c8
:101720004422dd00640242006122b90008fc22006c
:10173000090020000401d0008801d000030241000c
:101740004220a80089824a004200a9004220ae003f
:101750004200a8000482d300a601800005007800a2
:1017600004027800a0018800070a7800a60188001a
:101770004f06be004f05be004f04be000080fa00b9
:10178000000006001600fa00889fbe008a9fbe0077
:101790008c9fbe00004f78001107980042479800c8
:1017a000534798006447980075479800064f980083
:1017b000174f98009e4078000180fb001e41780082
:1017c0000282fb004422dd00640242006122b90073
:1017d00008fc2200090020008401d0000803d0008a
:1017e000068241004220a80089824a004200a900e6
:1017f0004220ae004200a8000482d300960180007f
:10180000850378009701880000000000040278003a
:1018100094027800960188000000000004ff2f0069
:10182000848262001e029000848342004402dd0034
:10183000640242006122b90001fc220051079800b5
:1018400002002000620798005e019000ee01900007
:101850000403d0008200d000010243004220a8000f
:1018600083824a004200a9004220ae004200a80044
:101870000482d300a60180000500780004027800ed
:10188000a0018800070a7800a60188001e417800a0
:101890008282fb005e4290000482fb004823dd0050
:1018a0004e4290000482fb0084034300442add0082
:1018b000660242006122b90003fc2200730798000f
:1018c00006002000060f98007e0190008e0990000f
:1018d0000403d0008200d000010243004220a8008f
:1018e00083824a004200a9004220ae004200a800c4
:1018f0000482d300a601800005007800040278006d
:10190000a0018800070a7800a60188001e4178001f
:101910008282fb007e4290000482fb004823dd00af
:101920006e4290000482fb0084034300442add00e1
:10193000680242006122b90003fc2200130f9800e4
:1019400006002000260f98001e099000ae099000a6
:101950000403d0008200d000010243004220a8000e
:1019600083824a004200a9004220ae004200a80043
:101970000482d300a60180000500780004027800ec
:10198000a0018800070a7800a60188001e4178009f
:101990008282fb001e4a90000482fb004823dd0087
:1019a0000e4a90000482fb0084034300442add00b9
:1019b0006a0242006122b9000cfc22000d002000e6
:1019c0008401d0000c03d000068241004220a80010
:1019d0008d824a004200a9004220ae004200a800c9
:1019e0000482d300a601800005007800040278007c
:1019f000a0018800070a7800a60188009e437800ad
:101a00008782fb006ef297000482fb004823dd0012
:101a10000efa97000482fb0084034300442add0091
:101a20006c0242006122b9000afc22000b00200077
:101a30008400d0000a01d000028240004220a800a9
:101a40008b824a004200a9004220ae004200a8005a
:101a50000482d300a601800005007800040278000b
:101a6000a0018800070a7800a60188004f06be0082
:101a70004f05be004f04be000080fa0000000600c3
:101a80003200fa00889fbe008a9fbe008c9fbe0075
:101a9000400798000002eb00040f78000002eb0002
:101aa000140798006022b8002407980035079800b2
:101ab0004e029000045290000482fb004422dd009c
:101ac0006122b90006fc2200070020008400d0003b
:101ad0000601d000028240004220a80087824a000e
:101ae0004200a9004220ae004200a8000482d300b8
:101af000970180000503780096018800000000002f
:101b000004027800140278009701880000000000a9
:101b1000610f62004e029000045290000482fb00ac
:101b20004422dd006122b90002fc220003002000f3
:101b30000403d0008203d000070243004220a80023
:101b400083824a004200a9004220ae004200a80061
:101b50000482d30097018000050378009601880075
:101b60000000000004027800140278009701880049
:101b70000000000062026200140798001e02780054
:101b8000e00f520023003a004e02900004529000f1
:101b90000482fb004422dd006122b9000afc22001d
:101ba0000b0020008400d0000a01d0000282400017
:101bb0004220a8008b824a004200a9004220ae00c9
:101bc0004200a8000482d30097018000050378003a
:101bd000960188000000000004027800940278005a
:101be0009701880000000000c4ff21000482620009
:101bf0004222de00050020004e03900054039800ae
:101c000065039800ce02900044c0b300e44a9800f7
:101c1000980037004e029000045290000482fb00ae
:101c20004422dd006122b90008fc220009002000e6
:101c30000403d0008803d000070243004220a8001c
:101c400089824a004200a9004220ae004200a8005a
:101c50000482d30097018000050378009601880074
:101c60000000000004027800140278009701880048
:101c70000000000005002000c6ff21000700200032
:101c8000840078000500780086027800070278005a
:101c9000858060000402600005002000c022dd0095
:101ca000040020000403be00610ab80004037300ae
:101cb0008583730026079800370798002e0290004e
:101cc000be029000c022dd00040020004e03900000
:101cd00054039800650398004e029000045290004f
:101ce0000482fb004422dd000482e8006122b90086
:101cf0000cfc22000d0020008400d0000c01d0005c
:101d0000028240004220a8008d824a004200a900c1
:101d10004220ae004200a8000482d3009701800058
:101d20000503780096018800000000000402780096
:101d300014027800970188000000000005002000d0
:101d4000f6ff2000070020008400780005007800de
:101d50008602780007027800858060000402600037
:101d600005002000c022dd00040020000403be00a6
:101d7000610ab80004037300858373002607980086
:101d8000370798004e02900054009000e400900045
:101d90002e029000be029000462bdd00ca23de001a
:101da000870373004623dd000002430081824b005d
:101db0004e03900054039800650398004e02900073
:101dc000045290000482fb004422dd0064024200c1
:101dd0006122b90006fc2200560798000700200087
:101de000670798005e039000ee0390008400d00027
:101df0000601d000028240004220a80087824a00eb
:101e00004200a9004220ae004200a8000482d30094
:101e1000970180000503780096018800000000000b
:101e20000402780014027800970188000000000086
:101e30004a22de000500200024079800350798009c
:101e40004e02900054039000e40390002e02900094
:101e5000be0290000602420087824a004e039000b4
:101e60005403980065039800ce02900034c0b3007c
:101e7000e44a98001e029000e10f520004003a006c
:101e8000ce02900024c0b300f44a98002801370025
:101e9000ce02900014c0b300f44a98004e029000a5
:101ea000045290000482fb004422dd0066024200de
:101eb0006122b90006fc2200760798000700200086
:101ec000070f98007e0390008e0b90008400d000d6
:101ed0000601d000028240004220a80087824a000a
:101ee0004200a9004220ae004200a8000482d300b4
:101ef000970180000503780096018800000000002b
:101f000004027800140278009701880000000000a5
:101f1000844278004e029000154298004e029000d4
:101f2000045290000482fb004422dd00660242005d
:101f30006122b90006fc2200160f9800070020005d
:101f4000270f98001e0b9000ae0b90008400d0006d
:101f50000601d000028240004220a80087824a0089
:101f60004200a9004220ae004200a8000482d30033
:101f700097018000050378009601880000000000aa
:101f80000402780014027800970188000000000025
:101f90004822de00844278004e02900025429800dc
:101fa0004e029000045290000482fb004422dd00a7
:101fb000680242006122b90006fc2200360f980038
:101fc00007002000470f98003e0b9000ce0b9000ba
:101fd0008400d0000601d000028240004220a80008
:101fe00087824a004200a9004220ae004200a800b9
:101ff0000482d300970180000503780096018800d1
:1020000000000000040278001402780097018800a4
:102010000000000004427800ce029000b442980014
:102020004e029000045290000482fb004422dd0026
:10203000680242006122b90006fc2200560f980097
:1020400007002000670f98005e0b9000ee0b9000d9
:102050008400d0000601d000028240004220a80087
:1020600087824a004200a9004220ae004200a80038
:102070000482d300960180008503780097018800d0
:102080000000000004027800140278009601880025
:10209000000000004822de0004427800ce029000da
:1020a000c44298004e029000045290000482fb004b
:1020b0004422dd006a0242006122b90006fc2200cf
:1020c000760f980007002000071798007e0b9000fd
:1020d0008e1390008400d0000601d00002824000e0
:1020e0004220a80087824a004200a9004220ae0098
:1020f0004200a8000482d300960180008503780086
:1021000097018800000000000402780014027800a3
:10211000960188000000000004427800ce02900082
:10212000d44298004e029000045290000482fb00ba
:102130004422dd006a0242006122b90006fc22004e
:102140001617980007002000271798001e1390000c
:10215000ae1390008400d0000601d000028240003f
:102160004220a80087824a004200a9004220ae0017
:102170004200a8000482d300960180008503780005
:102180009701880000000000040278001402780023
:1021900096018800000000004822de00044278001a
:1021a000ce029000e44298004e029000045290004b
:1021b0000482fb004422dd006c0242006122b9006f
:1021c00006fc2200361798000700200047179800e9
:1021d0003e139000ce1390008400d0000601d00082
:1021e000028240004220a80087824a004200a900e3
:1021f0004220ae004200a8000482d3009601800075
:102200008503780097018800000000000402780030
:102210001402780096018800000000000442780053
:10222000ce029000f44298004e02900004529000ba
:102230000482fb004422dd006c0242006122b900ee
:1022400006fc220056179800070020006717980028
:102250005e139000ee1390008400d0000601d000c1
:10226000028240004220a80087824a004200a90062
:102270004220ae004200a8000482d30096018000f4
:1022800085037800970188000000000004027800b0
:102290001402780096018800000000004822de0049
:1022a00004427800ce029000844a98004e029000ca
:1022b000045290000482fb004422dd0064024200cc
:1022c0006122b90006fc2200761798000700200062
:1022d000071f98007e1390008e1b90008400d00092
:1022e0000601d000028240004220a80087824a00f6
:1022f0004200a9004220ae004200a8000482d300a0
:102300009601800085037800970188000000000096
:102310000402780014027800960188000000000092
:10232000044278006f426200ce029000844a780036
:1023300014c0b3000400780000f0b70014c0b3006c
:102340000400780001f0b7004f06be004f05be0044
:102350004f04be000080fa00000006000040da00d2
:102360000000fe00839f68000100e00002003d00c5
:1023700060001000e08018000300e00002003d0053
:1023800060011100e0811900050007004f00e00026
:1023900002003b0060001000e08018000000060012
:1023a0006022b800060220000000d0008180d20028
:1023b0000482d2008582d2000000a00002025200f6
:1023c00083825a00030031000202420083824a00e5
:1023d0000000a1000603e900f3ff3a000000060038
:020000040000fa
:1023e0001080ba00000006001000ba0000000600cd
:1023f000801f78000500fc0050052000703988001f
:10240000a00a20007039880029e7a8000000000019
:102410000000000029e7af00feff37004f00780002
:1024200000000600a202800062398800513988004d
:1024300014002400433980000418e1000200320037
:10244000f10fb2000b003700010278000410a20067
:102450009482ba003100b2005400f800a60f2000a8
:10246000a60288008088bb000110a2008588bb00fe
:10247000040037005400f800a60f2000a6028800d0
:102480008088bb005400f90000000600a202800012
:1024900062398800513988001400240043398000d3
:1024a0000418e10002003200f10fb2000b00370007
:1024b000010278000410a2009402ba003100b200b8
:1024c0005400f800a60f2000a60288008008bb0078
:1024d0000110a2008508bb00040037005400f8007a
:1024e000a60f2000a60288008008bb005400f90057
:0424f00000000600e2
:020000040000fa
:1024f400001000004600000080000000c02f000013
:1025040020000000800000004610000004000000cd
:102514008200000040420f00000000004a1000004a
:0c25240002000000800000000000000029
:020000040000fa
:109000000600fa00140280004522de00674262007a
:109010000482fb00040f780094028000140798007b
:10902000ff3ffc00140280000450a0000460a00078
:109030000470a000140288001e02900094028800b0
:1090400000008800eae407009402800024079800ea
:10905000ff3ffc001e027800044278006742620075
:109060000482fb00670262004522dd0016028000d8
:10907000f5f12f00850263000502720014028800da
:109080002e02900094028800000088000080fa0000
:10909000000006000c00fa00004f9800114f9800e5
:1090a000224f9800a4028000140798000680210037
:1090b000071020000e4a90008482fb0004802100eb
:1090c00084aab900050020000603420087834a00f5
:1090d0001e4a90000482fb004b22dd0005002000a8
:1090e0000602420087824a00402ade00040278001d
:1090f000a40288000480210005102000840278006a
:109100001e4a90000483fb000e4a90000482fb007c
:10911000e322b900040243004b22dd000482420036
:10912000240798002e02900004007800ace40700a9
:1091300000027800644798002e4a90000482fb00e9
:10914000f30f52000a003200f40f52000e003200fa
:10915000f20f520012003a006e4290000482fb00af
:109160006402620042a2de00044f78000f00370064
:109170006e4290000482fb006802620043a2de009f
:10918000044f7800090037006e4290000482fb0013
:109190007002620044a2de00044f78000300370032
:1091a0000042eb00044f7800000000001e02900017
:1091b000a40288009e4278000582fb00040078002b
:1091c0000080fa00000006000600fa004047980000
:1091d00051479800a4028000040f78000680210007
:1091e000071020004e4290008482fb000480210082
:1091f00084aab900050020000603420087834a00c4
:109200005e4290000482fb004b22dd00050020003e
:109210000602420087824a00402ade0004027800eb
:10922000a40288003400240044398800048021000e
:1092300005102000840278005e4290000483fb0049
:109240004e4290000482fb00e322b9000402430076
:109250004b22dd0004824200140798009e02900019
:109260001e029000850078000400780087e4070063
:1092700063ff07001e027800a40288000080fa0045
:10928000000006000c00fa00204f98000002eb00de
:10929000040f7800a4028000340798000002eb005d
:1092a00014079800030037001e0290000402e80033
:1092b000140798001e029000e20f520009003c00c3
:1092c0001e0290000442780032c1b300844078004e
:1092d0002e4890006fff070000027800e10f520057
:1092e000f1ff320006802100071020002e4a900076
:1092f0008482fb000480210084aab90005002000bc
:109300000603420087834a001e0290004b22dd00c4
:10931000050020000602420087824a00402ade0043
:1093200004027800a40288000480210005102000b7
:10933000840278002e4a90000482fb00e323b900e7
:109340001e029000040243004b22dd000482420012
:10935000240798001e8fe8002e0290000482e80087
:10936000240798002e029000040078001ce40700f7
:1093700000027800044f9800f47f20009e027800dd
:10938000848f520003003c000e4a9000e14f4200df
:10939000f0ff3a00048020009e027800848f520083
:1093a00002003a000002eb00040f78003e02900039
:1093b000a40288001e027800040078000080fa00f1
:1093c000000006001400fa00881f7800205798005b
:1093d000a4028000640798000002eb00040f7800ec
:1093e000010037001e0fe8001e027800e20f520055
:1093f00009003c001e0278000442780032c1b3002c
:10940000844078002e50900022ff07000002780070
:10941000e10f5200f3ff32001e027800e30f52000a
:1094200005003a006e029000a40288004a70a8006d
:10943000340020006d0137001e02e8001407980078
:109440001e029000e30f520013003a000002eb00ee
:1094500014079800110037001e0290000402e80073
:10946000140798001e029000e30f520002003a0019
:109470000002eb00140798001e0290009e0f52009d
:1094800006003a006e029000a40288004a30a8004c
:109490001400200055013700000000001e0290005b
:1094a0000442780042c1b300844078002e509000fe
:1094b000f8fe070000027800e00f5200e6ff3200dd
:1094c00006802100071020002e5290008482fb00ad
:1094d0000480210084aab900050020000603420090
:1094e00087834a001e0290004b22dd000500200009
:1094f0000602420087824a00402ade000402780009
:10950000a402880004802100051020008402780055
:109510002e5290000482fb00e323b9001e0290004b
:10952000040243004b22dd0004824200240798001d
:109530002e50900053ff070000027800e00f520009
:10954000010032004a50a8004ad0bf00604f980086
:109550004a10a9000002eb00340798002400240000
:1095600044398800ae0090000080eb00c7e307009c
:10957000ae009000f00f2000aae307002e0290003a
:109580000482e800240798000042eb00044f980092
:109590003e0290000402e8003407980038003700cb
:1095a0002e5290008482fb00f40f200084aab900a0
:1095b000840278000e4a90000482fb00048242007c
:1095c00004007800c70107000002780054079800e3
:1095d0005482800061026200e00f520002003200fb
:1095e0004a10a9000f0037005e029000ae00900004
:1095f00004007800a5e307000e4a90000482fb00f7
:10960000ae0090000400780086e307002e02900070
:109610000482e800240798003e0290000402e8005b
:10962000340798000e4a90000442e800044f980066
:109630000c003700ae0090000080eb0093e30700c1
:10964000ae009000f00f200076e307002e0290009d
:109650000482e800240798003e0290000402e8001b
:10966000340798000e4a9000e14f420004003a008f
:10967000be029000f4072000848f5200edff3400fa
:109680000e4a9000e14f420004003200be029000fa
:10969000f4072000848f5200c1ff340058fe0700f9
:1096a0000002eb00340798000e4a9000e14f4200a0
:1096b000f3ff3a006e4890004af0b70006802100a0
:1096c000071020002e5290008482fb0004802100ad
:1096d00084aab900050020000603420087834a00df
:1096e0001e0290004b22dd00050020000602420011
:1096f00087824a00402ade0004027800a402880023
:109700000480210005102000840278002e52900071
:109710000482fb00e323b9001e0290000402430010
:109720004b22dd00048242000482e80024079800f6
:109730002e029000ae0290008502e80025079800f6
:109740000400780026e3070000027800044f980028
:109750002e029000ae0290008502e80025079800d6
:109760000400780020e30700000278005407980006
:10977000230037002e5290008482fb00f40f20005b
:1097800084aab900840278000e4a90000482fb008b
:1097900004824200040078005201070000027800b1
:1097a000de029000850f5200050032006e0290002c
:1097b000a40288004af0a800740020008b00370043
:1097c0002e029000ae0290008502e8002507980066
:1097d0000400780002e3070000027800044f9800bc
:1097e0002e029000ae0290008502e8002507980046
:1097f00004007800fce2070000027800540798009b
:109800000e4a9000e14f4200daff3a000480210046
:1098100005102000840278002e5290000482fb0084
:10982000e323b9001e027800040243004b22dd004e
:1098300004824200040f98000480210005102000db
:10984000840278002e5290000482fb00e323b900ca
:109850001e029000040243004b22dd0004824200fd
:109860002407980006802100071020002e52900047
:109870008482fb000480210084aab9000500200036
:109880000603420087834a001e0278004b22dd0057
:10989000050020000602420087824a00402ade00be
:1098a00004027800a40288000e089000cee20700af
:1098b00000027800540798000e089000c8e20700e4
:1098c00000027800044f98001e029000e00f520042
:1098d00003003a005e0290000402e800540798007a
:1098e0005e029000e30f5200050036004a30a800e7
:1098f0008e4a9000f4ceb30004c26200044f980078
:1099000006802100071020002e5290008482fb0068
:109910000480210084aab90005002000060342004b
:1099200087834a001e0290004b22dd0005002000c4
:109930000602420087824a00402ade0004027800c4
:10994000a40288000e4a90000482fb00ae00900042
:1099500004007800b3e207005e029000ae009000c1
:1099600004007800c9e2070014002400443988008c
:10997000a3fd07000e4a90000484fb002e00900017
:1099800097e2070000027800840f540007003a00b5
:109990002e00900094e20700000278008402780014
:1099a0005e029000848f5200050032006e0290002b
:1099b000a40288004af0a800740020000b003700c1
:1099c0001e02780004427800844078002e509000f7
:1099d000fdfd07006e029000a40288005482800002
:1099e0000402d100614262000482fb00040078009e
:1099f0004f0478000080fa00000006000c00fa0016
:109a0000a402800034079800048021000510200083
:109a1000402ade0004027800a40288000042eb0025
:109a200044479800a80037000042eb00044f78003c
:109a30000042eb00144798000002eb004407980036
:109a40000002eb0014079800030037001e0290008c
:109a50000402e800140798001e029000e20f520072
:109a600009003e001e0290000442780042c1b3008b
:109a7000844078004e40900086fd07000002780088
:109a8000e00f5200f1ff32001e029000e30f52007f
:109a900005003a003e029000a40288004a30a80067
:109aa00014c0b3008c0037000002eb0014079800cc
:109ab0000d0037001e0290000442780032c1b3004e
:109ac000844078004e40900072fd0700000278004c
:109ad000e00f520001003a001e4fe8001e02900005
:109ae0000402e800140798001e029000e20f5200e2
:109af000f0ff36001e427800e04f520026003a0088
:109b00008040eb004e409000affd07000680210032
:109b1000071020004e4290008482fb000480210048
:109b200084aab900050020000602420087824a008c
:109b3000402ade0004027800a4028800048021008c
:109b400005102000840278004e4290000483fb0040
:109b50000480210084b2b9000482420054079800b6
:109b600014002400443988005e02900084007800cc
:109b70000000eb0045e207005e02900084007800e0
:109b8000300f200027e207001dfd07003e02900075
:109b9000a4028800490037001e427800e14f5200bd
:109ba00003003a003e029000a40288004300370000
:109bb0001e427800e24f52003b003a0032c1b3002f
:109bc00021c0b3004e40900032fd07000002780033
:109bd000e00f52000c003a0032c1b3008040eb00ad
:109be0004e4090002bfd070000027800e00f52006d
:109bf00005003a0024002000140798000042eb0002
:109c0000144798001b0037000002eb00140798006f
:109c1000030037001e0290000402e80014079800b9
:109c20001e0290000442780032c1b30084407800e4
:109c30004e40900017fd070000027800e10f52002f
:109c400003003a001e029000e20f5200f1ff3600be
:109c50001e029000044278000442e8001447980075
:109c60001e429000e34f520002003a000042eb0017
:109c7000144798009e4090004e40900052fd07000f
:109c80004e4090007ffd070000027800e00f520078
:109c900002003a004e409000cafd07003e029000cc
:109ca000a4028800050037003e029000a40288004c
:109cb0004ad0a80064c0b300070037004e429000ad
:109cc0000442e800444798004e429000e14f5200a1
:109cd00055ff36000042eb00044078000080fa0097
:109ce000000006000e00fa0060079800ee029000e7
:109cf000d41f2000848f5200030036004ab0a80011
:109d00000082eb0069003700ee029000f40f2000a3
:109d1000110009008482d80000027800644798008e
:109d2000a4028000440798000002eb00040f7800b2
:109d3000010037001e0fe8001e027800e20f5200fb
:109d400009003e001e0278000442780032c1b300d0
:109d5000844078006e409000cefc0700000278003e
:109d6000e10f5200f3ff32001e027800e30f5200b1
:109d700005003a004e009000a00288004ad0a800da
:109d80000082eb0049003700068021000710200008
:109d90006e4290008482fb000480210084aab900f6
:109da000050020000603420087834a001e02780057
:109db0004b22dd00050020000602420087824a0097
:109dc000402ade0004027800a402880004802100fa
:109dd00005102000840278006e4290000482fb008f
:109de000e322b9001e0242000402e8004b22dd001b
:109df000048242000482e900140798000440200015
:109e0000240798001e0290000400780074e1070007
:109e100000027800540798001e0290000482e900b6
:109e2000140798002e0290000402e900240798000d
:109e30002e029000e00f520009003200ee02900066
:109e4000f40f2000110009008482d800010278007c
:109e5000840278005e029000848f5200e9ff3a008d
:109e60002e029000e00f520005003a004a10a800b0
:109e70004e029000a40288000082eb000b00370025
:109e80001e0290000482e800140798001e02900051
:109e90000400780054e1070000027800540798009d
:109ea0004e009000a00288005e029000040078003e
:109eb0000080fa00000006001200fa007007980007
:109ec000010f98008e0a9000d41f2000848f52004a
:109ed000030036004ab0a80054c0b300b7003700f2
:109ee0008e0a9000f40f2000110009008482d8002f
:109ef0000002780014079800a4028000240798004c
:109f000014002400443988000002eb00040f78009c
:109f1000010037001e0fe8001e027800e20f520019
:109f20000b003c001e027800844278001e02900064
:109f30000442780032c1b3008540780004407800c4
:109f400054fc070000027800e10f5200f1ff3200dc
:109f50001e027800e30f520005003a002e02900026
:109f6000a40288004ad0a80064c0b3009300370060
:109f700006802100071020009e029000048021002e
:109f800084aab900050020000603420087834a0026
:109f90001e0278004b22dd00050020000602420070
:109fa00087824a00402ade0004027800a40288006a
:109fb0000480210005102000840278001e02900019
:109fc000e323b9001e027800040243004b22dd00a7
:109fd0000482420034079800a4042100144278004f
:109fe000044f98000e0890003eff07000002780022
:109ff000fe029000850f52000a003a005482800051
:10a0000061026200e00f520006003a002e0290004a
:10a01000a40288000e4890004af0b7000042eb000e
:10a02000660037000e4890004af0b7001e0290000c
:10a03000044278000440780092fc07000002780097
:10a04000540798005e029000e00f520005003a00ad
:10a050002e029000a40288004a90a80044c0b300d9
:10a0600056003700be0290005e029000048242005b
:10a07000340798007e029000be0090000400780033
:10a0800002e107008e0a9000f40f20001100090081
:10a090008482d80001027800be009000040078009d
:10a0a000e0e00700d6fb0700000000000000000011
:10a0b0003e009000cce007000002780004427800e7
:10a0c000444f98004e4a90008482fb007e0390002b
:10a0d000f40f200004026300848f52000500320058
:10a0e0002e029000a40288004af0a80074c0b300b9
:10a0f000320037003e009000b9e00700000278000f
:10a1000004427800444f98004e4a90008482fb003d
:10a110000e0b9000f40f2000110009000483d800fa
:10a1200001027800848f5200050032002e02900058
:10a13000a40288004af0a80074c0b3001f003700d2
:10a140003e0290000402e800340798003e009000b0
:10a15000a5e00700000278004822de0004427800f3
:10a16000444f98004e4a90008482fb007e0290008b
:10a170004822de00848f5200050032002e0290003b
:10a18000a40288004af0a80074c0b3000b00370096
:10a19000de029000e47f2000848f520004003a0029
:10a1a0001e029000044278000440780085fc0700fd
:10a1b0002e029000a40288000042eb0004407800c8
:08a1c0000080fa000000060017
:020000040000fa
:020000040001f9
:045fe000cfff0000ef
:020000040000fa
:020000040001f9
:045fe400ffff0000bb
:020000040000fa
:020000040001f9
:045fe8005fff000057
:020000040000fa
:020000040001f9
:045fec005eff000054
:020000040000fa
:020000040001f9
:045ff0003bff000073
:020000040000fa
:020000040001f9
:045ff400ffff0000ab
:00000001FF
