:020000040000fa
:080000000002040000000000f2
:020000040000fa
:10000800d2020000d2020000d2020000d202000098
:10001800d2020000d2020000d2020000d202000088
:10002800d2020000d2020000d2020000d202000078
:100038008c4c0000d2020000d2020000d202000064
:10004800d2020000d2020000d2020000d202000058
:10005800d2020000d2020000d2020000d202000048
:10006800d2020000d2020000d2020000d202000038
:10007800d2020000d2020000d2020000d202000028
:10008800984c0000d2020000d2020000d202000008
:10009800d2020000d2020000d2020000d202000008
:1000a800d2020000d2020000d2020000244c00005c
:1000b800d2020000d2020000d2020000d2020000e8
:1000c800d2020000d2020000d2020000d2020000d8
:1000d800d2020000d2020000d2020000d2020000c8
:1000e800d2020000d2020000d2020000d2020000b8
:1000f800d2020000d2020000d2020000d2020000a8
:10010800d2020000d2020000d2020000d202000097
:10011800d2020000d2020000d2020000d202000087
:10012800d2020000d2020000d2020000d202000077
:10013800d2020000d2020000d2020000d202000067
:10014800d2020000d2020000d2020000d202000057
:10015800d2020000d2020000d2020000d202000047
:10016800d2020000d2020000d2020000d202000037
:10017800d2020000d2020000d2020000d202000027
:10018800d2020000d2020000d2020000d202000017
:10019800d2020000d2020000d2020000d202000007
:1001a800d2020000d2020000d2020000d2020000f7
:1001b800d2020000d2020000d2020000d2020000e7
:1001c800d2020000d2020000d2020000d2020000d7
:1001d800d2020000d2020000d2020000d2020000c7
:1001e800d2020000d2020000d2020000d2020000b7
:1001f800d2020000d2020000d2020000d2020000a7
:10020800d2020000d2020000d2020000d202000096
:10021800d2020000d2020000d2020000d202000086
:10022800d2020000d2020000d2020000d202000076
:10023800d2020000d2020000d2020000d202000066
:10024800d2020000d2020000d2020000d202000056
:10025800d2020000d2020000d2020000d202000046
:10026800d2020000d2020000d2020000d202000036
:0c027800d2020000d2020000d2020000fe
:020000040000fa
:100400006f0121000efb22000e0188000000000099
:10041000000020000000e000020032000001200087
:10042000200288000c000700204920000100200065
:100430000f000700000020000000e0000200320072
:1004400000000200000000000a4702000000000057
:100450000040da000000fe00200020000000e00064
:100460000200320010002000900188000000060009
:10047000a1028800800078000000eb001a0037001d
:10048000e280400054a0b4009101ba00e280400034
:1004900054a0b4009102ba00e280400054a0b4001d
:1004a0000002eb00472bde00f507b200a601880032
:1004b000602ce10008003a000049eb000201e8006e
:1004c000020039003420ec0002f0a0008301e900b2
:1004d000f9ff3e00040037006128e100010032000e
:1004e0000082eb00040007001101ba000200e000e6
:1004f000e3ff3a000000060004d0a300e20f490029
:100500001c003900810278003549ba000201e80078
:10051000020039003420ec0002f0a0008301e90061
:100520000f0032002549ba000201e800020039003c
:100530003420ec0002f0a0008301e9000800320042
:100540000400e0000600320015c9ba000201e8000c
:10055000020039003420ec0002f0a0008301e90021
:100560008180e80054a0b4000300e000e2ff3a00fc
:10057000000006009102ba00055978008301e900e5
:10058000f7ff3200c82ade00055978008301e90030
:10059000f3ff32000400e000f1ff320011d9ba008d
:0c05a000eeff37000040da000000fe0013
:020000040000fa
:1005ac000000fa000003eb00865f88000003eb00fc
:1005bc00965f880006022200065888002644200018
:1005cc006658880076002000765888006604200063
:1005dc001658880004fc2200050020000402780054
:1005ec00245888000002eb003458880001eba80066
:1005fc000080fa00000006000000fa000080fa00fb
:10060c00000006000000fa000003eb00865f880083
:10061c000003eb00965f8800060220000659880054
:10062c000644200066598800760020007659880020
:10063c00260220001659880004fc22000500200028
:10064c0004027800245988000002eb003459880019
:10065c0021eba8000080fa00000006000000fa0060
:10066c00842080000460a1000470a1008420880014
:10067c008520800004fc2f00048262000400a0008e
:10068c0084208800942080000430a1000440a00045
:10069c000450a0009420880012e4a800942080004c
:1006ac000480a1000490a00004a0a1009420880064
:1006bc00942080000400a0000410a0000420a100dd
:1006cc009420880012c4a8000080fa0000000600e4
:1006dc000000fa00042080000480a1000490a10016
:1006ec0004a0a00004208800000000000520800069
:1006fc00040e20008482620004082000848f5200c3
:10070c00faff3a00d5ff07003420800004d0a10086
:10071c0004e0a10004f0a100342088008002eb006a
:10072c001400200011002000f2ff2f00e3ff210035
:10073c0010002000a11e0700140020001100200052
:10074c00f2ff2f00f3ff210010002000631f0700b1
:10075c00042080000480a1000490a10004a0a1004a
:10076c00042088000000000005208000040e2000fa
:10077c0004826200e00f5200fbff3a000002eb0023
:10078c005421880054218000442188004421800099
:10079c0014218800142180000421880030e4a80072
:1007ac0031e4a900842180000400a0000410a00002
:1007bc0084218800842180000480a0000490a00083
:1007cc00842188000002eb00a4368800a536800046
:1007dc0004f82f0084826200c4022000050272001b
:1007ec00a436880045348000f40f2c00848262000b
:1007fc0004e0200005027200443488000080fa00f6
:10080c00000006001080ba00000006001000ba00bc
:10081c0000000600801f78000500fc005005200039
:10082c0070398800a00a20007039880029e7a800d8
:10083c00000000000000000029e7af00feff3700b9
:10084c004f00780000000600a20280006239880088
:10085c005139880014002400433980000418e10049
:10086c0002003200f10fb2000b00370001027800d9
:10087c000410a2009482ba003100b2005400f800b7
:10088c00a60f2000a60288008088bb000110a200e1
:10089c008588bb00040037005400f800a60f200028
:1008ac00a60288008088bb005400f90000000600f6
:1008bc00a20280006239880051398800140024009b
:1008cc00433980000418e10002003200f10fb2003d
:1008dc000b003700010278000410a2009402ba0049
:1008ec003100b2005400f800a60f2000a6028800c8
:1008fc008008bb000110a2008508bb000400370073
:10090c005400f800a60f2000a60288008008bb0047
:08091c005400f9000000060080
:020000040000fa
:10092400c02f000020000000800000000010000024
:1009340014000000800000001410000002000000f9
:0809440080000000000000002b
:020000040000fa
:107000000600fa00140280004522de00674262009a
:107010000482fb00040f780094028000140798009b
:10702000ff3ffc00140280000450a0000460a00098
:107030000470a000140288001e02900094028800d0
:1070400000008800f6e507009402800024079800fd
:10705000ff3ffc001e027800044278006742620095
:107060000482fb00670262004522dd0016028000f8
:10707000f5f12f00850263000502720014028800fa
:107080002e02900094028800000088000080fa0020
:10709000000006000c00fa00004f9800114f980005
:1070a000224f9800a4028000140798000680200058
:1070b000071020000e4a90008482fb00048021000b
:1070c00084aab900050020000603420087834a0015
:1070d0001e4a90000482fb004b22dd0005002000c8
:1070e0000602420087824a00402ade00040278003d
:1070f000a40288000480200005102000840278008b
:107100001e4a90000483fb000e4a90000482fb009c
:10711000e322b900040243004b22dd000482420056
:10712000240798002e02900004007800b8e50700bc
:1071300000027800644798002e4a90000482fb0009
:10714000f30f52000a003200f40f52000e0032001a
:10715000f20f520012003a006e4290000482fb00cf
:107160006402620042a2de00044f78000f00370084
:107170006e4290000482fb006802620043a2de00bf
:10718000044f7800090037006e4290000482fb0033
:107190007002620044a2de00044f78000300370052
:1071a0000042eb00044f7800000000001e02900037
:1071b000a40288009e4278000582fb00040078004b
:1071c0000080fa00000006000600fa004047980020
:1071d00051479800a4028000040f78000680200028
:1071e000071020004e4290008482fb0004802100a2
:1071f00084aab900050020000603420087834a00e4
:107200005e4290000482fb004b22dd00050020005e
:107210000602420087824a00402ade00040278000b
:10722000a40288003400240044398800048020002f
:1072300005102000840278005e4290000483fb0069
:107240004e4290000482fb00e322b9000402430096
:107250004b22dd0004824200140798009e02900039
:107260001e029000850078000400780093e5070076
:1072700063ff07001e027800a40288000080fa0065
:10728000000006000c00fa00204f98000002eb00fe
:10729000040f7800a4028000340798000002eb007d
:1072a00014079800030037001e0290000402e80053
:1072b000140798001e029000e20f520009003c00e3
:1072c0001e0290000442780032c1b300844078006e
:1072d0002e4890006fff070000027800e10f520077
:1072e000f1ff320006802000071020002e4a900097
:1072f0008482fb000480210084aab90005002000dc
:107300000603420087834a001e0290004b22dd00e4
:10731000050020000602420087824a00402ade0063
:1073200004027800a40288000480200005102000d8
:10733000840278002e4a90000482fb00e323b90007
:107340001e029000040243004b22dd000482420032
:10735000240798001e8fe8002e0290000482e800a7
:10736000240798002e0290000400780028e507000a
:1073700000027800044f9800f47f20009e027800fd
:10738000848f520003003c000e4a9000e14f4200ff
:10739000f0ff3a00048020009e027800848f5200a3
:1073a00002003a000002eb00040f78003e02900059
:1073b000a40288001e027800040078000080fa0011
:1073c000000006001400fa00881f7800205798007b
:1073d000a4028000640798000002eb00040f78000c
:1073e000010037001e0fe8001e027800e20f520075
:1073f00009003c001e0278000442780032c1b3004c
:10740000844078002e50900022ff07000002780090
:10741000e10f5200f3ff32001e027800e30f52002a
:1074200005003a006e029000a40288001470a800c3
:10743000340020006d0137001e02e8001407980098
:107440001e029000e30f520013003a000002eb000e
:1074500014079800110037001e0290000402e80093
:10746000140798001e029000e30f520002003a0039
:107470000002eb00140798001e0290009e0f5200bd
:1074800006003a006e029000a40288001430a800a2
:107490001400200055013700000000001e0290007b
:1074a0000442780042c1b300844078002e5090001e
:1074b000f8fe070000027800e00f5200e6ff3200fd
:1074c00006802000071020002e5290008482fb00ce
:1074d0000480210084aab9000500200006034200b0
:1074e00087834a001e0290004b22dd000500200029
:1074f0000602420087824a00402ade000402780029
:10750000a402880004802000051020008402780076
:107510002e5290000482fb00e323b9001e0290006b
:10752000040243004b22dd0004824200240798003d
:107530002e50900053ff070000027800e00f520029
:10754000010032001450a80014d0bf00604f980012
:107550001410a9000002eb00340798002400240056
:1075600044398800ae0090000080eb00d3e40700af
:10757000ae009000f00f2000b6e407002e0290004d
:107580000482e800240798000042eb00044f9800b2
:107590003e0290000402e8003407980038003700eb
:1075a0002e5290008482fb00f40f200084aab900c0
:1075b000840278000e4a90000482fb00048242009c
:1075c00004007800c7010700000278005407980003
:1075d000a480800061026200e00f520002003200cd
:1075e0001410a9000f0037005e029000ae0090005a
:1075f00004007800b1e407000e4a90000482fb000a
:10760000ae0090000400780092e407002e02900083
:107610000482e800240798003e0290000402e8007b
:10762000340798000e4a90000442e800044f980086
:107630000c003700ae0090000080eb009fe40700d4
:10764000ae009000f00f200082e407002e029000b0
:107650000482e800240798003e0290000402e8003b
:10766000340798000e4a9000e14f420004003a00af
:10767000be029000f4072000848f5200edff34001a
:107680000e4a9000e14f420004003200be0290001a
:10769000f4072000848f5200c1ff340058fe070019
:1076a0000002eb00340798000e4a9000e14f4200c0
:1076b000f3ff3a006e48900014f0b70006802000f7
:1076c000071020002e5290008482fb0004802100cd
:1076d00084aab900050020000603420087834a00ff
:1076e0001e0290004b22dd00050020000602420031
:1076f00087824a00402ade0004027800a402880043
:107700000480200005102000840278002e52900092
:107710000482fb00e323b9001e0290000402430030
:107720004b22dd00048242000482e8002407980016
:107730002e029000ae0290008502e8002507980016
:107740000400780032e4070000027800044f98003b
:107750002e029000ae0290008502e80025079800f6
:10776000040078002ce40700000278005407980019
:10777000230037002e5290008482fb00f40f20007b
:1077800084aab900840278000e4a90000482fb00ab
:1077900004824200040078005201070000027800d1
:1077a000de029000850f5200050032006e0290004c
:1077b000a402880014f0a800740020008b00370099
:1077c0002e029000ae0290008502e8002507980086
:1077d000040078000ee4070000027800044f9800cf
:1077e0002e029000ae0290008502e8002507980066
:1077f0000400780008e407000002780054079800ad
:107800000e4a9000e14f4200daff3a000480200067
:1078100005102000840278002e5290000482fb00a4
:10782000e323b9001e027800040243004b22dd006e
:1078300004824200040f98000480200005102000fc
:10784000840278002e5290000482fb00e323b900ea
:107850001e029000040243004b22dd00048242001d
:107860002407980006802000071020002e52900068
:107870008482fb000480210084aab9000500200056
:107880000603420087834a001e0278004b22dd0077
:10789000050020000602420087824a00402ade00de
:1078a00004027800a40288000e089000dae30700c2
:1078b00000027800540798000e089000d4e30700f7
:1078c00000027800044f98001e029000e00f520062
:1078d00003003a005e0290000402e800540798009a
:1078e0005e029000e30f5200050036001430a8003d
:1078f0008e4a9000f4ceb30004c26200044f980098
:1079000006802000071020002e5290008482fb0089
:107910000480210084aab90005002000060342006b
:1079200087834a001e0290004b22dd0005002000e4
:107930000602420087824a00402ade0004027800e4
:10794000a40288000e4a90000482fb00ae00900062
:1079500004007800bfe307005e029000ae009000d4
:1079600004007800d5e3070014002400443988009f
:10797000a3fd07000e4a90000484fb002e00900037
:10798000a3e3070000027800840f540007003a00c8
:107990002e009000a0e30700000278008402780027
:1079a0005e029000848f5200050032006e0290004b
:1079b000a402880014f0a800740020000b00370017
:1079c0001e02780004427800844078002e50900017
:1079d000fdfd07006e029000a4028800a4808000d4
:1079e0000402d100614262000482fb0004007800be
:1079f0004f0478000080fa00000006000c00fa0036
:107a0000a4028000340798000480200005102000a4
:107a1000402ade0004027800a40288000042eb0045
:107a200044479800a80037000042eb00044f78005c
:107a30000042eb00144798000002eb004407980056
:107a40000002eb0014079800030037001e029000ac
:107a50000402e800140798001e029000e20f520092
:107a600009003e001e0290000442780042c1b300ab
:107a7000844078004e40900086fd070000027800a8
:107a8000e00f5200f1ff32001e029000e30f52009f
:107a900005003a003e029000a40288001430a800bd
:107aa00014c0b3008c0037000002eb0014079800ec
:107ab0000d0037001e0290000442780032c1b3006e
:107ac000844078004e40900072fd0700000278006c
:107ad000e00f520001003a001e4fe8001e02900025
:107ae0000402e800140798001e029000e20f520002
:107af000f0ff36001e427800e04f520026003a00a8
:107b00008040eb004e409000affd07000680200053
:107b1000071020004e4290008482fb000480210068
:107b200084aab900050020000602420087824a00ac
:107b3000402ade0004027800a402880004802000ad
:107b400005102000840278004e4290000483fb0060
:107b50000480210084b2b9000482420054079800d6
:107b600014002400443988005e02900084007800ec
:107b70000000eb0051e307005e02900084007800f3
:107b8000300f200033e307001dfd07003e02900088
:107b9000a4028800490037001e427800e14f5200dd
:107ba00003003a003e029000a40288004300370020
:107bb0001e427800e24f52003b003a0032c1b3004f
:107bc00021c0b3004e40900032fd07000002780053
:107bd000e00f52000c003a0032c1b3008040eb00cd
:107be0004e4090002bfd070000027800e00f52008d
:107bf00005003a0024002000140798000042eb0022
:107c0000144798001b0037000002eb00140798008f
:107c1000030037001e0290000402e80014079800d9
:107c20001e0290000442780032c1b3008440780004
:107c30004e40900017fd070000027800e10f52004f
:107c400003003a001e029000e20f5200f1ff3600de
:107c50001e029000044278000442e8001447980095
:107c60001e429000e34f520002003a000042eb0037
:107c7000144798009e4090004e40900052fd07002f
:107c80004e4090007ffd070000027800e00f520098
:107c900002003a004e409000cafd07003e029000ec
:107ca000a4028800050037003e029000a40288006c
:107cb00014d0a80064c0b300070037004e42900003
:107cc0000442e800444798004e429000e14f5200c1
:107cd00055ff36000042eb00044078000080fa00b7
:107ce000000006000e00fa0060079800ee02900007
:107cf000d41f2000848f52000300360014b0a80067
:107d00000082eb0069003700ee029000f40f2000c3
:107d1000110009008482d8000002780064479800ae
:107d2000a4028000440798000002eb00040f7800d2
:107d3000010037001e0fe8001e027800e20f52001b
:107d400009003e001e0278000442780032c1b300f0
:107d5000844078006e409000cefc0700000278005e
:107d6000e10f5200f3ff32001e027800e30f5200d1
:107d700005003a004e009000a002880014d0a80030
:107d80000082eb0049003700068020000710200029
:107d90006e4290008482fb000480210084aab90016
:107da000050020000603420087834a001e02780077
:107db0004b22dd00050020000602420087824a00b7
:107dc000402ade0004027800a4028800048020001b
:107dd00005102000840278006e4290000482fb00af
:107de000e322b9001e0242000402e8004b22dd003b
:107df000048242000482e900140798000440200035
:107e0000240798001e0290000400780080e207001a
:107e100000027800540798001e0290000482e900d6
:107e2000140798002e0290000402e900240798002d
:107e30002e029000e00f520009003200ee02900086
:107e4000f40f2000110009008482d800010278009c
:107e5000840278005e029000848f5200e9ff3a00ad
:107e60002e029000e00f520005003a001410a80006
:107e70004e029000a40288000082eb000b00370045
:107e80001e0290000482e800140798001e02900071
:107e90000400780060e207000002780054079800b0
:107ea0004e009000a00288005e029000040078005e
:107eb0000080fa00000006001200fa007007980027
:107ec000010f98008e0a9000d41f2000848f52006a
:107ed0000300360014b0a80054c0b300b700370048
:107ee0008e0a9000f40f2000110009008482d8004f
:107ef0000002780014079800a4028000240798006c
:107f000014002400443988000002eb00040f7800bc
:107f1000010037001e0fe8001e027800e20f520039
:107f20000b003c001e027800844278001e02900084
:107f30000442780032c1b3008540780004407800e4
:107f400054fc070000027800e10f5200f1ff3200fc
:107f50001e027800e30f520005003a002e02900046
:107f6000a402880014d0a80064c0b30093003700b6
:107f700006802000071020009e029000048021004f
:107f800084aab900050020000603420087834a0046
:107f90001e0278004b22dd00050020000602420090
:107fa00087824a00402ade0004027800a40288008a
:107fb0000480200005102000840278001e0290003a
:107fc000e323b9001e027800040243004b22dd00c7
:107fd00004824200340798004401210014427800d2
:107fe000044f98000e0890003eff07000002780042
:107ff000fe029000850f52000a003a00a480800023
:1080000061026200e00f520006003a002e0290006a
:10801000a40288000e48900014f0b7000042eb0064
:10802000660037000e48900014f0b7001e02900062
:10803000044278000440780092fc070000027800b7
:10804000540798005e029000e00f520005003a00cd
:108050002e029000a40288001490a80044c0b3002f
:1080600056003700be0290005e029000048242007b
:10807000340798007e029000be0090000400780053
:108080000ee207008e0a9000f40f20001100090094
:108090008482d80001027800be00900004007800bd
:1080a000ece10700d6fb0700000000000000000024
:1080b0003e009000d8e107000002780004427800fa
:1080c000444f98004e4a90008482fb007e0390004b
:1080d000f40f200004026300848f52000500320078
:1080e0002e029000a402880014f0a80074c0b3000f
:1080f000320037003e009000c5e107000002780022
:1081000004427800444f98004e4a90008482fb005d
:108110000e0b9000f40f2000110009000483d8001a
:1081200001027800848f5200050032002e02900078
:10813000a402880014f0a80074c0b3001f00370028
:108140003e0290000402e800340798003e009000d0
:10815000b1e10700000278004822de000442780006
:10816000444f98004e4a90008482fb007e029000ab
:108170004822de00848f5200050032002e0290005b
:10818000a402880014f0a80074c0b3000b003700ec
:10819000de029000e47f2000848f520004003a0049
:1081a0001e029000044278000440780085fc07001d
:1081b0002e029000a40288000042eb0004407800e8
:1081c0000080fa00000006002000fa00200f98004e
:1081d000320f9800430f9800510f9800640f9800d9
:1081e000750f98006022b800048fbe006022b800ae
:1081f00024079800350798006022b80044079800cb
:10820000550798000004a8002e0a900004024200be
:1082100004024200840278000444200004824200e8
:10822000640798002e0a900042a2de000402420079
:1082300084027800044220000482420074079800ff
:108240002e0a900043a2de0004024200840278005d
:108250008441200004824200040f98004441200021
:10826000140f98005e0a9000e10f520049003a0096
:108270003e0b9000ce0b9000f4ff2f000500200075
:108280000600780007037800840378000502780070
:10829000070060000402630005002000c022dd002a
:1082a000040020000403be006102b8000403730050
:1082b0008583730026079800370798003e0a9000d0
:1082c000ce0a900040aade00cfa2de000403be006a
:1082d0003400200005002000060078000703780025
:1082e0008403780005027800070060000402630040
:1082f00005002000c022dd00040020000403be00b1
:108300006102b80004037300858373004607980078
:10831000570798003e0a9000ce0a900042aade005d
:10832000cfa2de000403be00f47f20000500200081
:1083300006007800870378000403780005027800bf
:10834000060360000482630005002000c022dd00f7
:1083500004002000048fbe006132b8001e1f7200ae
:108360001e9772001e027800c522dd004e029000aa
:1083700004824200e80242006e029000050a780082
:108380006e0290000482e800ae029000050a7800b8
:10839000190037003e0b9000ce0b9000f47f2000b8
:1083a00005002000060078008703780004037800a9
:1083b00005027800060360000482630005002000c7
:1083c000c022dd0004002000048fbe006132b8002e
:1083d0001e1f72001e9772001e027800c522dd006b
:1083e0006e029000050a78006e0290000482e80098
:1083f0008002eb00050a78007e029000940278006b
:108400002e0a9000630262004222dd00f600200086
:108410000432dd000482ea00848262007e02900061
:10842000050a78002e0a9000630262004222dd00f5
:10843000ee0a9000842add007e029000140278008b
:108440000403780005037300860278007e02900022
:10845000050a78000e0a9000940278002e0a900017
:108460006702620004024200360020000432dd0090
:108470000482ea00848262000e0a9000050a7800f5
:108480002e0a90006702620004024200fe0a900079
:10849000842add000e0a900014027800040378009c
:1084a00005037300860278000e0a9000050a780022
:1084b000150020002e0a9000042add0084027800b6
:1084c0001e0a90001402780004037800050373006c
:1084d000860278001e0a9000050a78000004a900b0
:1084e0000080fa00000006001800fa0070079800eb
:1084f000020f9800130f9800210f9800340f980076
:108500006022b800048fbe006022b80024079800e3
:10851000350798006022b800440798005507980076
:108520000004a8007e0290000402420004024200ff
:10853000840278000443200004824200640798000b
:108540003e0a9000e10f520053003a000e0b9000db
:108550009e0b9000f4ff2f0005002000060078001d
:1085600007037800840378000502780007006000a4
:108570000402630005002000c022dd00040020008a
:108580000403be006102b800040373008583730016
:1085900026079800370798000e0a90009e0a900060
:1085a00040aade00cfa2de000403be00340020009b
:1085b0000500200006007800070378008403780097
:1085c0000502780007006000040263000500200037
:1085d000c022dd00040020000403be006102b800d8
:1085e00004037300858373004607980057079800bb
:1085f0000e0a90009e0a900042aade00cfa2de0082
:108600000403be00f47f200005002000060078006f
:1086100087037800040378000502780006036000f1
:108620000482630005002000c022dd000400200059
:10863000048fbe006132b8001e1f72001e977200c8
:108640002e0a9000e10f520008003a001e02780046
:10865000c522dd004e02900004824200e802420082
:108660006e029000050a7800060037001e027800ae
:10867000c522dd004e029000848242006e0290000e
:10868000050a78006e0290000482e800ae029000b5
:10869000050a7800220037000e0b90009e0b900018
:1086a000f47f200005002000060078008703780092
:1086b000040378000502780006036000048263006a
:1086c00005002000c022dd0004002000048fbe0051
:1086d0006132b8001e1f72001e9772002e0a9000b1
:1086e000e10f520006003a001e0278004522dd002c
:1086f000e80242006e029000050a7800040037008c
:108700001e027800c522dd006e029000050a780086
:108710006e0290000482e8008002eb00050a7800f7
:108720000004a9000080fa00000006002600fa00fc
:10873000889fbe008a9fbe008c9fbe00400f98009d
:10874000520f9800630f9800710f9800041798005b
:108750006022b800048fbe006022b8002407980091
:10876000350798006022b800440798005507980024
:108770006022b80064079800750798006022b8006e
:10878000040f9800150f98006022b800240f98007d
:10879000350f98007e0a9000e00f5200460032002c
:1087a0005e0b9000ee0b9000f4032000050020000b
:1087b000060078000703780084037800050278003b
:1087c000070060000402630005002000c022dd00f5
:1087d000040020000403be006102b800040373001b
:1087e00085837300060f9800170f98005e0a9000ab
:1087f000ee0a9000ca28dd004622de0004827000e6
:10880000c6aade000403be00f4ff2000050020001d
:1088100006007800070378008403780005027800da
:10882000070060000402630005002000c022dd0094
:10883000040020000403be006102b80004037300ba
:1088400085837300260f9800370f98005e0a90000a
:10885000ee0a900042aade00cfa2de000403be00b2
:10886000f47f200005002000060078000703780050
:1088700084037800050278000700600004026300aa
:1088800005002000c022dd00040020000403be001b
:108890006102b800040373008583730066079800c3
:1088a000770798002e099000be09900022079800d3
:1088b00033079800130037005e0b9000ee0b90001a
:1088c000f47f2000050020000600780007037800f0
:1088d000840378000502780007006000040263004a
:1088e00005002000c022dd00040020000403be00bb
:1088f0006102b80004037300858373006607980063
:10890000770798000e129000e10f52001a003a000b
:108910006e029000fe029000422bdd00ce23de00ae
:10892000870373004223dd007e0a900005002000cb
:1089300004027300858273000403be000610a000c9
:10894000068fbe000e0a90009e0a90004a2bdd00a2
:10895000c623de00870373004a23dd0004202000c5
:10896000050020000402730085827300440798000c
:1089700055079800120037006e029000fe0290002a
:10898000422bdd00ce23de00870373004223dd008f
:108990007e0a900005002000041f730005977300f5
:1089a0000e0b90009e0b90004a3add00c632de00ae
:1089b000850272004a32dd0044079800550798008e
:1089c0007e0a9000e00f52001c0032001e02780068
:1089d000840378000710a0004e0a90004422dd00b6
:1089e0006122b90001fc220011179800020020004a
:1089f000221798001e119000ae1190000403d000c1
:108a00008200d000010243004220a80083824a0075
:108a10004200a9004220ae004200a8000482d30018
:108a2000a60180000500780004027800a0018800fb
:108a3000070a7800a6018800150037009e03780019
:108a40004e0a90004422dd006122b9000cfc220095
:108a50000d0020000401d0008c01d0000302410071
:108a60004220a8008d824a004200a9004220ae00a8
:108a70004200a8000482d300a6018000050078000f
:108a800004027800a0018800070a7800a601880087
:108a9000ae0390004e0a90004422dd000482e800fc
:108aa0006122b9000afc22000b0020000403d00060
:108ab0008a00d000010243004220a8008b824a00b5
:108ac0004200a9004220ae004200a8000482d30068
:108ad000a60180000500780004027800a00188004b
:108ae000070a7800a6018800ce0390004e0a900085
:108af0004422dd00640242006122b90008fc220029
:108b0000090020000401d0008801d00003024100c8
:108b10004220a80089824a004200a9004220ae00fb
:108b20004200a8000482d300a6018000050078005e
:108b300004027800a0018800070a7800a6018800d6
:108b40004f06be004f05be004f04be000080fa0075
:108b5000000006001400fa00889fbe008a9fbe0035
:108b60008c9fbe00000f7800110798002207980024
:108b70003307980044079800550798001e027800b4
:108b80004422dd00640242006122b90006fc22009a
:108b9000070020008400d0000601d00002824000bf
:108ba0004220a80087824a004200a9004220ae006d
:108bb0004200a8000482d30096018000850378005b
:108bc00097018800000000000402780094027800f9
:108bd000960188000000000004ff2f0084826200dc
:108be0001e029000848342001e0278004422dd00b1
:108bf000640242006122b90003fc2200630798006e
:108c000006002000760798006e019000fe0190009b
:108c10000403d0008200d000010243004220a800db
:108c200083824a004200a9004220ae004200a80010
:108c30000482d300a60180000500780004027800b9
:108c4000a0018800070a7800a60188001e027800ab
:108c50004422dd00660242006122b90002fc2200cb
:108c6000020f980003002000130f98000e0b9000d5
:108c70009e0b90008400d0000601d00002824000cc
:108c80004220a80087824a004200a9004220ae008c
:108c90004200a8000482d300ae039000a601800029
:108ca0000500780004027800a0018800070a780017
:108cb000a60188001e0278004422dd0068024200fe
:108cc0006122b9000cfc22000d0020008401d000bc
:108cd0000c03d000068241004220a8008d824a0089
:108ce0004200a9004220ae004200a8000482d30046
:108cf000be039000a6018000050078000402780001
:108d0000a0018800070a7800a60188001e027800ea
:108d10004422dd006a0242006122b9000afc2200fe
:108d20000b0020008403d0008a00d00001824300a1
:108d30004220a8008b824a004200a9004220ae00d7
:108d40004200a8000482d300ce039000a601800058
:108d50000500780004027800a0018800070a780066
:108d6000a60188001e0278004422dd006c02420049
:108d70006122b90008fc2200090020000401d00093
:108d80008801d000030241004220a80089824a00e5
:108d90004200a9004220ae004200a8000482d30095
:108da000de039000a6018000050078000402780030
:108db000a0018800070a7800a60188004f06be00bf
:108dc0004f05be004f04be000080fa000000060000
:108dd0000400fa00100798000004a8004441200095
:108de000040f78001e02780094027800160020001c
:108df0001e0290000432dd000482ea0084826200d8
:108e00001e027800050a78000004a9000080fa001c
:108e1000000006000000fa005b0207004d02070098
:108e2000114ea900002ea900154ea9002bde070047
:108e3000dedd0700f6dd07002468a8000c04a800aa
:108e40000c24a8000ca4a800020007003064a800ad
:108e5000ffff37000000fa000002eb008000eb008b
:108e60006011b8000000eb0030fe0700454424000c
:108e7000343323002322220012112100810020001c
:108e80000000eb0033ff07000080fa00000006003e
:108e90003200fa00889fbe008a9fbe008c9fbe00f1
:108ea000400798000002eb00040f78000002eb007e
:108eb000140798006022b80024079800350798002e
:108ec0004e029000344290000482fb004422dd00f8
:108ed0006122b90006fc2200070020008400d000b7
:108ee0000601d000028240004220a80087824a008a
:108ef0004200a9004220ae004200a8000482d30034
:108f000097018000050378009601880000000000aa
:108f10000402780014027800970188000000000025
:108f2000610f62004e029000344290000482fb0008
:108f30004422dd006122b90002fc2200030020006f
:108f40000403d0008203d000070243004220a8009f
:108f500083824a004200a9004220ae004200a800dd
:108f60000482d300970180000503780096018800f1
:108f700000000000040278001402780097018800c5
:108f80000000000062026200140798001e027800d0
:108f9000e00f520023003a004e029000344290004d
:108fa0000482fb004422dd006122b9000afc220099
:108fb0000b0020008400d0000a01d0000282400093
:108fc0004220a8008b824a004200a9004220ae0045
:108fd0004200a8000482d3009701800005037800b6
:108fe00096018800000000000402780094027800d6
:108ff0009701880000000000c4ff21000482620085
:109000004222de00050020004e0390002403980059
:1090100035039800ce02900044c0b300a4429800eb
:10902000980037004e029000344290000482fb000a
:109030004422dd006122b90008fc22000900200062
:109040000403d0008803d000070243004220a80098
:1090500089824a004200a9004220ae004200a800d6
:109060000482d300970180000503780096018800f0
:1090700000000000040278001402780097018800c4
:109080000000000005002000c6ff210007002000ae
:1090900084007800050078008602780007027800d6
:1090a000858060000402600005002000c022dd0011
:1090b000040020000403be00610ab800040373002a
:1090c0008583730026079800370798002e029000ca
:1090d000be029000c022dd00040020004e0390007c
:1090e00024039800350398004e029000344290000b
:1090f0000482fb004422dd000482e8006122b90002
:109100000cfc22000d0020008400d0000c01d000d7
:10911000028240004220a8008d824a004200a9003d
:109120004220ae004200a8000482d30097018000d4
:109130000503780096018800000000000402780012
:10914000140278009701880000000000050020004c
:10915000f6ff20000700200084007800050078005a
:1091600086027800070278008580600004026000b3
:1091700005002000c022dd00040020000403be0022
:10918000610ab80004037300858373002607980002
:10919000370798004e02900024009000b400900021
:1091a0002e029000be029000462bdd00ca23de0096
:1091b000870373004623dd000002430081824b00d9
:1091c0004e03900024039800350398004e0290004f
:1091d000344290000482fb004422dd00640242001d
:1091e0006122b90006fc2200560798000700200003
:1091f000670798005e039000ee0390008400d000a3
:109200000601d000028240004220a80087824a0066
:109210004200a9004220ae004200a8000482d30010
:109220009701800005037800960188000000000087
:109230000402780014027800970188000000000002
:109240004a22de0005002000240798003507980018
:109250004e02900024039000b40390002e02900070
:10926000be0290000602420087824a004e03900030
:109270002403980035039800ce02900034c0b30058
:10928000a44298001e029000e10f520004003a0030
:10929000ce02900024c0b300944298002801370009
:1092a000ce02900014c0b300944298004e02900089
:1092b000344290000482fb004422dd00660242003a
:1092c0006122b90006fc2200760798000700200002
:1092d000070f98007e0390008e0b90008400d00052
:1092e0000601d000028240004220a80087824a0086
:1092f0004200a9004220ae004200a8000482d30030
:1093000097018000050378009601880000000000a6
:109310000402780014027800970188000000000021
:10932000844278004e029000054a98004e02900058
:10933000344290000482fb004422dd0066024200b9
:109340006122b90006fc2200160f980007002000d9
:10935000270f98001e0b9000ae0b90008400d000e9
:109360000601d000028240004220a80087824a0005
:109370004200a9004220ae004200a8000482d300af
:109380009701800005037800960188000000000026
:1093900004027800140278009701880000000000a1
:1093a0004822de00844278004e029000154a980060
:1093b0004e029000344290000482fb004422dd0003
:1093c000680242006122b90006fc2200360f9800b4
:1093d00007002000470f98003e0b9000ce0b900036
:1093e0008400d0000601d000028240004220a80084
:1093f00087824a004200a9004220ae004200a80035
:109400000482d3009701800005037800960188004c
:109410000000000004027800140278009701880020
:109420000000000004427800ce029000a44a980098
:109430004e029000344290000482fb004422dd0082
:10944000680242006122b90006fc2200560f980013
:1094500007002000670f98005e0b9000ee0b900055
:109460008400d0000601d000028240004220a80003
:1094700087824a004200a9004220ae004200a800b4
:109480000482d3009601800085037800970188004c
:1094900000000000040278001402780096018800a1
:1094a000000000004822de0004427800ce02900056
:1094b000b44a98004e029000344290000482fb00af
:1094c0004422dd006a0242006122b90006fc22004b
:1094d000760f980007002000071798007e0b900079
:1094e0008e1390008400d0000601d000028240005c
:1094f0004220a80087824a004200a9004220ae0014
:109500004200a8000482d300960180008503780001
:10951000970188000000000004027800140278001f
:10952000960188000000000004427800ce029000fe
:10953000c44a98004e029000344290000482fb001e
:109540004422dd006a0242006122b90006fc2200ca
:109550001617980007002000271798001e13900088
:10956000ae1390008400d0000601d00002824000bb
:109570004220a80087824a004200a9004220ae0093
:109580004200a8000482d300960180008503780081
:10959000970188000000000004027800140278009f
:1095a00096018800000000004822de000442780096
:1095b000ce029000d44a98004e02900034429000af
:1095c0000482fb004422dd006c0242006122b900eb
:1095d00006fc220036179800070020004717980065
:1095e0003e139000ce1390008400d0000601d000fe
:1095f000028240004220a80087824a004200a9005f
:109600004220ae004200a8000482d30096018000f0
:1096100085037800970188000000000004027800ac
:1096200014027800960188000000000004427800cf
:10963000ce029000e44a98004e029000344290001e
:109640000482fb004422dd006c0242006122b9006a
:1096500006fc2200561798000700200067179800a4
:109660005e139000ee1390008400d0000601d0003d
:10967000028240004220a80087824a004200a900de
:109680004220ae004200a8000482d3009601800070
:10969000850378009701880000000000040278002c
:1096a0001402780096018800000000004822de00c5
:1096b00004427800ce029000f44a98004e029000d6
:1096c000344290000482fb004422dd006402420028
:1096d0006122b90006fc22007617980007002000de
:1096e000071f98007e1390008e1b90008400d0000e
:1096f0000601d000028240004220a80087824a0072
:109700004200a9004220ae004200a8000482d3001b
:109710009601800085037800970188000000000012
:10972000040278001402780096018800000000000e
:10973000044278006f426200ce029000845298008a
:109740004f06be004f05be004f04be000080fa0069
:10975000000006000000fa000002eb000440880050
:109760000002eb00144088000002eb002440880057
:109770000002eb00344088000002eb004440880007
:109780000080fa00000006000000fa00353a800070
:1097900004e02f008482620064022000050272004f
:1097a000343a8800243a80000460a1000470a100cb
:1097b000243a8800253a800004fe2f0004826200cb
:1097c0003400b300243a880040a7a90036002000e6
:1097d00084072000a509200037742000844b7800fe
:1097e000854b7800864b7800143a8000040378009b
:1097f0000600a000640420007505200027742000e6
:10980000844b7800854b7800864b78000000000080
:10981000153a8000040027008482620004002300bf
:10982000848f5200faff3a0000000000153a8000d1
:109830000402200004826200e00f5200fbff3200ad
:109840000080fa00000006003600f800809fbe008d
:10985000829fbe00849fbe00869fbe000000fa006b
:10986000552080000402200004826200e00f5200b4
:10987000010032000aa4a90055208000040820003d
:1098800004826200e00f5200010032000ae4a900e5
:10989000552080000400210004826200e00f520085
:1098a000010032000b84a900542080006102620094
:1098b000e00f5200010032000a04a9005420800089
:1098c00062026200e00f52000b00320004218000af
:1098d00062026200e00f52000400320014c0b300c4
:1098e0000400780003f0b7002024a9000000210044
:1098f00067fd07000a24a9000468a9000080fa0097
:109900004f03be004f02be004f01be004f00be001d
:109910003600f90000400600801f78000000fa00c1
:109920000088a9000080fa004f007800004006007f
:10993000801f78000000fa000308a9000080fa00e8
:089940004f0078000040060012
:020000040000fa
:020000040001f9
:045fe000cfff0000ef
:020000040000fa
:020000040001f9
:045fe400ffff0000bb
:020000040000fa
:020000040001f9
:045fe8005fff000057
:020000040000fa
:020000040001f9
:045fec005eff000054
:020000040000fa
:020000040001f9
:045ff0003bff000073
:020000040000fa
:020000040001f9
:045ff400ffff0000ab
:00000001FF
